{
  "contractName": "TokenStaking",
  "abi": [
    {
      "inputs": [
        {
          "internalType": "contract TestToken",
          "name": "_testToken",
          "type": "address"
        }
      ],
      "stateMutability": "payable",
      "type": "constructor"
    },
    {
      "inputs": [],
      "name": "customAPY",
      "outputs": [
        {
          "internalType": "uint256",
          "name": "",
          "type": "uint256"
        }
      ],
      "stateMutability": "view",
      "type": "function"
    },
    {
      "inputs": [
        {
          "internalType": "address",
          "name": "",
          "type": "address"
        }
      ],
      "name": "customHasStaked",
      "outputs": [
        {
          "internalType": "bool",
          "name": "",
          "type": "bool"
        }
      ],
      "stateMutability": "view",
      "type": "function"
    },
    {
      "inputs": [
        {
          "internalType": "address",
          "name": "",
          "type": "address"
        }
      ],
      "name": "customIsStakingAtm",
      "outputs": [
        {
          "internalType": "bool",
          "name": "",
          "type": "bool"
        }
      ],
      "stateMutability": "view",
      "type": "function"
    },
    {
      "inputs": [
        {
          "internalType": "uint256",
          "name": "",
          "type": "uint256"
        }
      ],
      "name": "customStakers",
      "outputs": [
        {
          "internalType": "address",
          "name": "",
          "type": "address"
        }
      ],
      "stateMutability": "view",
      "type": "function"
    },
    {
      "inputs": [
        {
          "internalType": "address",
          "name": "",
          "type": "address"
        }
      ],
      "name": "customStakingBalance",
      "outputs": [
        {
          "internalType": "uint256",
          "name": "",
          "type": "uint256"
        }
      ],
      "stateMutability": "view",
      "type": "function"
    },
    {
      "inputs": [],
      "name": "customTotalStaked",
      "outputs": [
        {
          "internalType": "uint256",
          "name": "",
          "type": "uint256"
        }
      ],
      "stateMutability": "view",
      "type": "function"
    },
    {
      "inputs": [],
      "name": "defaultAPY",
      "outputs": [
        {
          "internalType": "uint256",
          "name": "",
          "type": "uint256"
        }
      ],
      "stateMutability": "view",
      "type": "function"
    },
    {
      "inputs": [
        {
          "internalType": "address",
          "name": "",
          "type": "address"
        }
      ],
      "name": "hasStaked",
      "outputs": [
        {
          "internalType": "bool",
          "name": "",
          "type": "bool"
        }
      ],
      "stateMutability": "view",
      "type": "function"
    },
    {
      "inputs": [
        {
          "internalType": "address",
          "name": "",
          "type": "address"
        }
      ],
      "name": "isStakingAtm",
      "outputs": [
        {
          "internalType": "bool",
          "name": "",
          "type": "bool"
        }
      ],
      "stateMutability": "view",
      "type": "function"
    },
    {
      "inputs": [],
      "name": "name",
      "outputs": [
        {
          "internalType": "string",
          "name": "",
          "type": "string"
        }
      ],
      "stateMutability": "view",
      "type": "function"
    },
    {
      "inputs": [],
      "name": "owner",
      "outputs": [
        {
          "internalType": "address",
          "name": "",
          "type": "address"
        }
      ],
      "stateMutability": "view",
      "type": "function"
    },
    {
      "inputs": [
        {
          "internalType": "uint256",
          "name": "",
          "type": "uint256"
        }
      ],
      "name": "stakers",
      "outputs": [
        {
          "internalType": "address",
          "name": "",
          "type": "address"
        }
      ],
      "stateMutability": "view",
      "type": "function"
    },
    {
      "inputs": [
        {
          "internalType": "address",
          "name": "",
          "type": "address"
        }
      ],
      "name": "stakingBalance",
      "outputs": [
        {
          "internalType": "uint256",
          "name": "",
          "type": "uint256"
        }
      ],
      "stateMutability": "view",
      "type": "function"
    },
    {
      "inputs": [],
      "name": "testToken",
      "outputs": [
        {
          "internalType": "contract TestToken",
          "name": "",
          "type": "address"
        }
      ],
      "stateMutability": "view",
      "type": "function"
    },
    {
      "inputs": [],
      "name": "totalStaked",
      "outputs": [
        {
          "internalType": "uint256",
          "name": "",
          "type": "uint256"
        }
      ],
      "stateMutability": "view",
      "type": "function"
    },
    {
      "inputs": [
        {
          "internalType": "uint256",
          "name": "_amount",
          "type": "uint256"
        }
      ],
      "name": "stakeTokens",
      "outputs": [],
      "stateMutability": "nonpayable",
      "type": "function"
    },
    {
      "inputs": [],
      "name": "unstakeTokens",
      "outputs": [],
      "stateMutability": "nonpayable",
      "type": "function"
    },
    {
      "inputs": [
        {
          "internalType": "uint256",
          "name": "_amount",
          "type": "uint256"
        }
      ],
      "name": "customStaking",
      "outputs": [],
      "stateMutability": "nonpayable",
      "type": "function"
    },
    {
      "inputs": [],
      "name": "customUnstake",
      "outputs": [],
      "stateMutability": "nonpayable",
      "type": "function"
    },
    {
      "inputs": [],
      "name": "redistributeRewards",
      "outputs": [],
      "stateMutability": "nonpayable",
      "type": "function"
    },
    {
      "inputs": [],
      "name": "customRewards",
      "outputs": [],
      "stateMutability": "nonpayable",
      "type": "function"
    },
    {
      "inputs": [
        {
          "internalType": "uint256",
          "name": "_value",
          "type": "uint256"
        }
      ],
      "name": "changeAPY",
      "outputs": [],
      "stateMutability": "nonpayable",
      "type": "function"
    },
    {
      "inputs": [],
      "name": "claimTst",
      "outputs": [],
      "stateMutability": "nonpayable",
      "type": "function"
    }
  ],
  "bytecode": "0x60806040526040518060400160405280601a81526020017f5969656c64204661726d696e67202f20546f6b656e2064417070000000000000815250600090816200004a91906200037d565b50606460035560896004556040516200230d3803806200230d83398181016040528101906200007a9190620004e2565b80600160006101000a81548173ffffffffffffffffffffffffffffffffffffffff021916908373ffffffffffffffffffffffffffffffffffffffff16021790555033600260006101000a81548173ffffffffffffffffffffffffffffffffffffffff021916908373ffffffffffffffffffffffffffffffffffffffff1602179055505062000514565b600081519050919050565b7f4e487b7100000000000000000000000000000000000000000000000000000000600052604160045260246000fd5b7f4e487b7100000000000000000000000000000000000000000000000000000000600052602260045260246000fd5b600060028204905060018216806200018557607f821691505b6020821081036200019b576200019a6200013d565b5b50919050565b60008190508160005260206000209050919050565b60006020601f8301049050919050565b600082821b905092915050565b600060088302620002057fffffffffffffffffffffffffffffffffffffffffffffffffffffffffffffffff82620001c6565b620002118683620001c6565b95508019841693508086168417925050509392505050565b6000819050919050565b6000819050919050565b60006200025e62000258620002528462000229565b62000233565b62000229565b9050919050565b6000819050919050565b6200027a836200023d565b62000292620002898262000265565b848454620001d3565b825550505050565b600090565b620002a96200029a565b620002b68184846200026f565b505050565b5b81811015620002de57620002d26000826200029f565b600181019050620002bc565b5050565b601f8211156200032d57620002f781620001a1565b6200030284620001b6565b8101602085101562000312578190505b6200032a6200032185620001b6565b830182620002bb565b50505b505050565b600082821c905092915050565b6000620003526000198460080262000332565b1980831691505092915050565b60006200036d83836200033f565b9150826002028217905092915050565b620003888262000103565b67ffffffffffffffff811115620003a457620003a36200010e565b5b620003b082546200016c565b620003bd828285620002e2565b600060209050601f831160018114620003f55760008415620003e0578287015190505b620003ec85826200035f565b8655506200045c565b601f1984166200040586620001a1565b60005b828110156200042f5784890151825560018201915060208501945060208101905062000408565b868310156200044f57848901516200044b601f8916826200033f565b8355505b6001600288020188555050505b505050505050565b600080fd5b600073ffffffffffffffffffffffffffffffffffffffff82169050919050565b6000620004968262000469565b9050919050565b6000620004aa8262000489565b9050919050565b620004bc816200049d565b8114620004c857600080fd5b50565b600081519050620004dc81620004b1565b92915050565b600060208284031215620004fb57620004fa62000464565b5b60006200050b84828501620004cb565b91505092915050565b611de980620005246000396000f3fe608060405234801561001057600080fd5b506004361061014d5760003560e01c80637cc302e5116100c3578063c93c8f341161007c578063c93c8f3414610344578063cc8da8b814610374578063cde5f4731461037e578063dfb0e706146103ae578063fb5cd515146103de578063fd5e6dd1146103fa5761014d565b80637cc302e5146102a6578063817b1cd2146102b05780638da5cb5b146102ce5780639bd62932146102ec578063a5ce413b1461031c578063b4e892af146103265761014d565b806363fa14661161011557806363fa1466146101f857806366f1c920146102165780636895179d146102205780636d6010c11461023e5780637547c7a31461026e57806376159b681461028a5761014d565b806306fdde03146101525780630c500a4e1461017057806329cc24071461018e57806345bc78ab146101985780635b5c58c3146101c8575b600080fd5b61015a61042a565b604051610167919061161d565b60405180910390f35b6101786104b8565b6040516101859190611658565b60405180910390f35b6101966104be565b005b6101b260048036038101906101ad91906116d6565b61057c565b6040516101bf9190611658565b60405180910390f35b6101e260048036038101906101dd91906116d6565b610594565b6040516101ef919061171e565b60405180910390f35b6102006105b4565b60405161020d9190611658565b60405180910390f35b61021e6105ba565b005b6102286107c2565b6040516102359190611798565b60405180910390f35b610258600480360381019061025391906116d6565b6107e8565b604051610265919061171e565b60405180910390f35b610288600480360381019061028391906117df565b610808565b005b6102a4600480360381019061029f91906117df565b610af8565b005b6102ae610bd5565b005b6102b8610db1565b6040516102c59190611658565b60405180910390f35b6102d6610db7565b6040516102e3919061181b565b60405180910390f35b610306600480360381019061030191906116d6565b610ddd565b604051610313919061171e565b60405180910390f35b610324610dfd565b005b61032e610fd9565b60405161033b9190611658565b60405180910390f35b61035e600480360381019061035991906116d6565b610fdf565b60405161036b919061171e565b60405180910390f35b61037c610fff565b005b610398600480360381019061039391906117df565b611207565b6040516103a5919061181b565b60405180910390f35b6103c860048036038101906103c391906116d6565b611246565b6040516103d59190611658565b60405180910390f35b6103f860048036038101906103f391906117df565b61125e565b005b610414600480360381019061040f91906117df565b61154e565b604051610421919061181b565b60405180910390f35b6000805461043790611865565b80601f016020809104026020016040519081016040528092919081815260200182805461046390611865565b80156104b05780601f10610485576101008083540402835291602001916104b0565b820191906000526020600020905b81548152906001019060200180831161049357829003601f168201915b505050505081565b60045481565b60003390506000683635c9adc5dea0000090506000819050600160009054906101000a900473ffffffffffffffffffffffffffffffffffffffff1673ffffffffffffffffffffffffffffffffffffffff1663a9059cbb84836040518363ffffffff1660e01b8152600401610533929190611896565b6020604051808303816000875af1158015610552573d6000803e3d6000fd5b505050506040513d601f19601f8201168201806040525081019061057691906118eb565b50505050565b60076020528060005260406000206000915090505481565b600c6020528060005260406000206000915054906101000a900460ff1681565b60065481565b600260009054906101000a900473ffffffffffffffffffffffffffffffffffffffff1673ffffffffffffffffffffffffffffffffffffffff163373ffffffffffffffffffffffffffffffffffffffff161461064a576040517f08c379a00000000000000000000000000000000000000000000000000000000081526004016106419061198a565b60405180910390fd5b60005b600e805490508110156107bf576000600e82815481106106705761066f6119aa565b5b9060005260206000200160009054906101000a900473ffffffffffffffffffffffffffffffffffffffff1690506000600454600860008473ffffffffffffffffffffffffffffffffffffffff1673ffffffffffffffffffffffffffffffffffffffff168152602001908152602001600020546106ec9190611a08565b9050620186a0816106fd9190611a79565b905060008111156107aa57600160009054906101000a900473ffffffffffffffffffffffffffffffffffffffff1673ffffffffffffffffffffffffffffffffffffffff1663a9059cbb83836040518363ffffffff1660e01b8152600401610765929190611896565b6020604051808303816000875af1158015610784573d6000803e3d6000fd5b505050506040513d601f19601f820116820180604052508101906107a891906118eb565b505b505080806107b790611aaa565b91505061064d565b50565b600160009054906101000a900473ffffffffffffffffffffffffffffffffffffffff1681565b600a6020528060005260406000206000915054906101000a900460ff1681565b6000811161084b576040517f08c379a000000000000000000000000000000000000000000000000000000000815260040161084290611b3e565b60405180910390fd5b600160009054906101000a900473ffffffffffffffffffffffffffffffffffffffff1673ffffffffffffffffffffffffffffffffffffffff166323b872dd3330846040518463ffffffff1660e01b81526004016108aa93929190611b5e565b6020604051808303816000875af11580156108c9573d6000803e3d6000fd5b505050506040513d601f19601f820116820180604052508101906108ed91906118eb565b50806005546108fc9190611b95565b60058190555080600760003373ffffffffffffffffffffffffffffffffffffffff1673ffffffffffffffffffffffffffffffffffffffff1681526020019081526020016000205461094d9190611b95565b600760003373ffffffffffffffffffffffffffffffffffffffff1673ffffffffffffffffffffffffffffffffffffffff16815260200190815260200160002081905550600960003373ffffffffffffffffffffffffffffffffffffffff1673ffffffffffffffffffffffffffffffffffffffff16815260200190815260200160002060009054906101000a900460ff16610a4557600d339080600181540180825580915050600190039060005260206000200160009091909190916101000a81548173ffffffffffffffffffffffffffffffffffffffff021916908373ffffffffffffffffffffffffffffffffffffffff1602179055505b6001600960003373ffffffffffffffffffffffffffffffffffffffff1673ffffffffffffffffffffffffffffffffffffffff16815260200190815260200160002060006101000a81548160ff0219169083151502179055506001600b60003373ffffffffffffffffffffffffffffffffffffffff1673ffffffffffffffffffffffffffffffffffffffff16815260200190815260200160002060006101000a81548160ff02191690831515021790555050565b600260009054906101000a900473ffffffffffffffffffffffffffffffffffffffff1673ffffffffffffffffffffffffffffffffffffffff163373ffffffffffffffffffffffffffffffffffffffff1614610b88576040517f08c379a0000000000000000000000000000000000000000000000000000000008152600401610b7f90611c3b565b60405180910390fd5b60008111610bcb576040517f08c379a0000000000000000000000000000000000000000000000000000000008152600401610bc290611cf3565b60405180910390fd5b8060048190555050565b6000600860003373ffffffffffffffffffffffffffffffffffffffff1673ffffffffffffffffffffffffffffffffffffffff16815260200190815260200160002054905060008111610c5c576040517f08c379a0000000000000000000000000000000000000000000000000000000008152600401610c5390611d5f565b60405180910390fd5b600160009054906101000a900473ffffffffffffffffffffffffffffffffffffffff1673ffffffffffffffffffffffffffffffffffffffff1663a9059cbb33836040518363ffffffff1660e01b8152600401610cb9929190611896565b6020604051808303816000875af1158015610cd8573d6000803e3d6000fd5b505050506040513d601f19601f82011682018060405250810190610cfc91906118eb565b5080600654610d0b9190611d7f565b6006819055506000600860003373ffffffffffffffffffffffffffffffffffffffff1673ffffffffffffffffffffffffffffffffffffffff168152602001908152602001600020819055506000600c60003373ffffffffffffffffffffffffffffffffffffffff1673ffffffffffffffffffffffffffffffffffffffff16815260200190815260200160002060006101000a81548160ff02191690831515021790555050565b60055481565b600260009054906101000a900473ffffffffffffffffffffffffffffffffffffffff1681565b600b6020528060005260406000206000915054906101000a900460ff1681565b6000600760003373ffffffffffffffffffffffffffffffffffffffff1673ffffffffffffffffffffffffffffffffffffffff16815260200190815260200160002054905060008111610e84576040517f08c379a0000000000000000000000000000000000000000000000000000000008152600401610e7b90611d5f565b60405180910390fd5b600160009054906101000a900473ffffffffffffffffffffffffffffffffffffffff1673ffffffffffffffffffffffffffffffffffffffff1663a9059cbb33836040518363ffffffff1660e01b8152600401610ee1929190611896565b6020604051808303816000875af1158015610f00573d6000803e3d6000fd5b505050506040513d601f19601f82011682018060405250810190610f2491906118eb565b5080600554610f339190611d7f565b6005819055506000600760003373ffffffffffffffffffffffffffffffffffffffff1673ffffffffffffffffffffffffffffffffffffffff168152602001908152602001600020819055506000600b60003373ffffffffffffffffffffffffffffffffffffffff1673ffffffffffffffffffffffffffffffffffffffff16815260200190815260200160002060006101000a81548160ff02191690831515021790555050565b60035481565b60096020528060005260406000206000915054906101000a900460ff1681565b600260009054906101000a900473ffffffffffffffffffffffffffffffffffffffff1673ffffffffffffffffffffffffffffffffffffffff163373ffffffffffffffffffffffffffffffffffffffff161461108f576040517f08c379a00000000000000000000000000000000000000000000000000000000081526004016110869061198a565b60405180910390fd5b60005b600d80549050811015611204576000600d82815481106110b5576110b46119aa565b5b9060005260206000200160009054906101000a900473ffffffffffffffffffffffffffffffffffffffff1690506000600354600760008473ffffffffffffffffffffffffffffffffffffffff1673ffffffffffffffffffffffffffffffffffffffff168152602001908152602001600020546111319190611a08565b9050620186a0816111429190611a79565b905060008111156111ef57600160009054906101000a900473ffffffffffffffffffffffffffffffffffffffff1673ffffffffffffffffffffffffffffffffffffffff1663a9059cbb83836040518363ffffffff1660e01b81526004016111aa929190611896565b6020604051808303816000875af11580156111c9573d6000803e3d6000fd5b505050506040513d601f19601f820116820180604052508101906111ed91906118eb565b505b505080806111fc90611aaa565b915050611092565b50565b600e818154811061121757600080fd5b906000526020600020016000915054906101000a900473ffffffffffffffffffffffffffffffffffffffff1681565b60086020528060005260406000206000915090505481565b600081116112a1576040517f08c379a000000000000000000000000000000000000000000000000000000000815260040161129890611b3e565b60405180910390fd5b600160009054906101000a900473ffffffffffffffffffffffffffffffffffffffff1673ffffffffffffffffffffffffffffffffffffffff166323b872dd3330846040518463ffffffff1660e01b815260040161130093929190611b5e565b6020604051808303816000875af115801561131f573d6000803e3d6000fd5b505050506040513d601f19601f8201168201806040525081019061134391906118eb565b50806006546113529190611b95565b60068190555080600860003373ffffffffffffffffffffffffffffffffffffffff1673ffffffffffffffffffffffffffffffffffffffff168152602001908152602001600020546113a39190611b95565b600860003373ffffffffffffffffffffffffffffffffffffffff1673ffffffffffffffffffffffffffffffffffffffff16815260200190815260200160002081905550600a60003373ffffffffffffffffffffffffffffffffffffffff1673ffffffffffffffffffffffffffffffffffffffff16815260200190815260200160002060009054906101000a900460ff1661149b57600e339080600181540180825580915050600190039060005260206000200160009091909190916101000a81548173ffffffffffffffffffffffffffffffffffffffff021916908373ffffffffffffffffffffffffffffffffffffffff1602179055505b6001600a60003373ffffffffffffffffffffffffffffffffffffffff1673ffffffffffffffffffffffffffffffffffffffff16815260200190815260200160002060006101000a81548160ff0219169083151502179055506001600c60003373ffffffffffffffffffffffffffffffffffffffff1673ffffffffffffffffffffffffffffffffffffffff16815260200190815260200160002060006101000a81548160ff02191690831515021790555050565b600d818154811061155e57600080fd5b906000526020600020016000915054906101000a900473ffffffffffffffffffffffffffffffffffffffff1681565b600081519050919050565b600082825260208201905092915050565b60005b838110156115c75780820151818401526020810190506115ac565b60008484015250505050565b6000601f19601f8301169050919050565b60006115ef8261158d565b6115f98185611598565b93506116098185602086016115a9565b611612816115d3565b840191505092915050565b6000602082019050818103600083015261163781846115e4565b905092915050565b6000819050919050565b6116528161163f565b82525050565b600060208201905061166d6000830184611649565b92915050565b600080fd5b600073ffffffffffffffffffffffffffffffffffffffff82169050919050565b60006116a382611678565b9050919050565b6116b381611698565b81146116be57600080fd5b50565b6000813590506116d0816116aa565b92915050565b6000602082840312156116ec576116eb611673565b5b60006116fa848285016116c1565b91505092915050565b60008115159050919050565b61171881611703565b82525050565b6000602082019050611733600083018461170f565b92915050565b6000819050919050565b600061175e61175961175484611678565b611739565b611678565b9050919050565b600061177082611743565b9050919050565b600061178282611765565b9050919050565b61179281611777565b82525050565b60006020820190506117ad6000830184611789565b92915050565b6117bc8161163f565b81146117c757600080fd5b50565b6000813590506117d9816117b3565b92915050565b6000602082840312156117f5576117f4611673565b5b6000611803848285016117ca565b91505092915050565b61181581611698565b82525050565b6000602082019050611830600083018461180c565b92915050565b7f4e487b7100000000000000000000000000000000000000000000000000000000600052602260045260246000fd5b6000600282049050600182168061187d57607f821691505b6020821081036118905761188f611836565b5b50919050565b60006040820190506118ab600083018561180c565b6118b86020830184611649565b9392505050565b6118c881611703565b81146118d357600080fd5b50565b6000815190506118e5816118bf565b92915050565b60006020828403121561190157611900611673565b5b600061190f848285016118d6565b91505092915050565b7f4f6e6c7920636f6e74726163742063726561746f722063616e2072656469737460008201527f7269627574650000000000000000000000000000000000000000000000000000602082015250565b6000611974602683611598565b915061197f82611918565b604082019050919050565b600060208201905081810360008301526119a381611967565b9050919050565b7f4e487b7100000000000000000000000000000000000000000000000000000000600052603260045260246000fd5b7f4e487b7100000000000000000000000000000000000000000000000000000000600052601160045260246000fd5b6000611a138261163f565b9150611a1e8361163f565b9250828202611a2c8161163f565b91508282048414831517611a4357611a426119d9565b5b5092915050565b7f4e487b7100000000000000000000000000000000000000000000000000000000600052601260045260246000fd5b6000611a848261163f565b9150611a8f8361163f565b925082611a9f57611a9e611a4a565b5b828204905092915050565b6000611ab58261163f565b91507fffffffffffffffffffffffffffffffffffffffffffffffffffffffffffffffff8203611ae757611ae66119d9565b5b600182019050919050565b7f616d6f756e742063616e6e6f7420626520300000000000000000000000000000600082015250565b6000611b28601283611598565b9150611b3382611af2565b602082019050919050565b60006020820190508181036000830152611b5781611b1b565b9050919050565b6000606082019050611b73600083018661180c565b611b80602083018561180c565b611b8d6040830184611649565b949350505050565b6000611ba08261163f565b9150611bab8361163f565b9250828201905080821115611bc357611bc26119d9565b5b92915050565b7f4f6e6c7920636f6e74726163742063726561746f722063616e206368616e676560008201527f2041505900000000000000000000000000000000000000000000000000000000602082015250565b6000611c25602483611598565b9150611c3082611bc9565b604082019050919050565b60006020820190508181036000830152611c5481611c18565b9050919050565b7f4150592076616c75652068617320746f206265206d6f7265207468616e20302c60008201527f207472792031303020666f722028302e31303025206461696c792920696e737460208201527f6561640000000000000000000000000000000000000000000000000000000000604082015250565b6000611cdd604383611598565b9150611ce882611c5b565b606082019050919050565b60006020820190508181036000830152611d0c81611cd0565b9050919050565b7f616d6f756e742068617320746f206265206d6f7265207468616e203000000000600082015250565b6000611d49601c83611598565b9150611d5482611d13565b602082019050919050565b60006020820190508181036000830152611d7881611d3c565b9050919050565b6000611d8a8261163f565b9150611d958361163f565b9250828203905081811115611dad57611dac6119d9565b5b9291505056fea2646970667358221220ebcc64fa247adb113418795e5d18e854ce4d92fd74e774f6c6039c45f0553d8a64736f6c63430008130033",
  "immutableReferences": {},
  "source": "// SPDX-License-Identifier: MIT\npragma solidity >=0.4.21 <0.9.0;\n\nimport \"./TestToken.sol\";\n\ncontract TokenStaking {\n    string public name = \"Yield Farming / Token dApp\";\n    TestToken public testToken;\n\n    //declaring owner state variable\n    address public owner;\n\n    //declaring default APY (default 0.1% daily or 36.5% APY yearly)\n    uint256 public defaultAPY = 100;\n\n    //declaring APY for custom staking ( default 0.137% daily or 50% APY yearly)\n    uint256 public customAPY = 137;\n\n    //declaring total staked\n    uint256 public totalStaked;\n    uint256 public customTotalStaked;\n\n    //users staking balance\n    mapping(address => uint256) public stakingBalance;\n    mapping(address => uint256) public customStakingBalance;\n\n    //mapping list of users who ever staked\n    mapping(address => bool) public hasStaked;\n    mapping(address => bool) public customHasStaked;\n\n    //mapping list of users who are staking at the moment\n    mapping(address => bool) public isStakingAtm;\n    mapping(address => bool) public customIsStakingAtm;\n\n    //array of all stakers\n    address[] public stakers;\n    address[] public customStakers;\n\n    constructor(TestToken _testToken)  payable {\n        testToken = _testToken;\n\n        //assigning owner on deployment\n        owner = msg.sender;\n    }\n\n    //stake tokens function\n\n    function stakeTokens(uint256 _amount) public {\n        //must be more than 0\n        require(_amount > 0, \"amount cannot be 0\");\n\n        //User adding test tokens\n        testToken.transferFrom(msg.sender, address(this), _amount);\n        totalStaked = totalStaked + _amount;\n\n        //updating staking balance for user by mapping\n        stakingBalance[msg.sender] = stakingBalance[msg.sender] + _amount;\n\n        //checking if user staked before or not, if NOT staked adding to array of stakers\n        if (!hasStaked[msg.sender]) {\n            stakers.push(msg.sender);\n        }\n\n        //updating staking status\n        hasStaked[msg.sender] = true;\n        isStakingAtm[msg.sender] = true;\n    }\n\n    //unstake tokens function\n\n    function unstakeTokens() public {\n        //get staking balance for user\n\n        uint256 balance = stakingBalance[msg.sender];\n\n        //amount should be more than 0\n        require(balance > 0, \"amount has to be more than 0\");\n\n        //transfer staked tokens back to user\n        testToken.transfer(msg.sender, balance);\n        totalStaked = totalStaked - balance;\n\n        //reseting users staking balance\n        stakingBalance[msg.sender] = 0;\n\n        //updating staking status\n        isStakingAtm[msg.sender] = false;\n    }\n\n    // different APY Pool\n    function customStaking(uint256 _amount) public {\n        require(_amount > 0, \"amount cannot be 0\");\n        testToken.transferFrom(msg.sender, address(this), _amount);\n        customTotalStaked = customTotalStaked + _amount;\n        customStakingBalance[msg.sender] =\n            customStakingBalance[msg.sender] +\n            _amount;\n\n        if (!customHasStaked[msg.sender]) {\n            customStakers.push(msg.sender);\n        }\n        customHasStaked[msg.sender] = true;\n        customIsStakingAtm[msg.sender] = true;\n    }\n\n    function customUnstake() public {\n        uint256 balance = customStakingBalance[msg.sender];\n        require(balance > 0, \"amount has to be more than 0\");\n        testToken.transfer(msg.sender, balance);\n        customTotalStaked = customTotalStaked - balance;\n        customStakingBalance[msg.sender] = 0;\n        customIsStakingAtm[msg.sender] = false;\n    }\n\n    //airdropp tokens\n    function redistributeRewards() public {\n        //only owner can issue airdrop\n        require(msg.sender == owner, \"Only contract creator can redistribute\");\n\n        //doing drop for all addresses\n        for (uint256 i = 0; i < stakers.length; i++) {\n            address recipient = stakers[i];\n\n            //calculating daily apy for user\n            uint256 balance = stakingBalance[recipient] * defaultAPY;\n            balance = balance / 100000;\n\n            if (balance > 0) {\n                testToken.transfer(recipient, balance);\n            }\n        }\n    }\n\n    //customAPY airdrop\n    function customRewards() public {\n        require(msg.sender == owner, \"Only contract creator can redistribute\");\n        for (uint256 i = 0; i < customStakers.length; i++) {\n            address recipient = customStakers[i];\n            uint256 balance = customStakingBalance[recipient] * customAPY;\n            balance = balance / 100000;\n\n            if (balance > 0) {\n                testToken.transfer(recipient, balance);\n            }\n        }\n    }\n\n    //change APY value for custom staking\n    function changeAPY(uint256 _value) public {\n        //only owner can issue airdrop\n        require(msg.sender == owner, \"Only contract creator can change APY\");\n        require(\n            _value > 0,\n            \"APY value has to be more than 0, try 100 for (0.100% daily) instead\"\n        );\n        customAPY = _value;\n    }\n\n    //cliam test 1000 Tst (for testing purpose only !!)\n    function claimTst() public {\n        address recipient = msg.sender;\n        uint256 tst = 1000000000000000000000;\n        uint256 balance = tst;\n        testToken.transfer(recipient, balance);\n    }\n}\n",
  "sourcePath": "/home/tevin/celo-token-stake/src/contracts/TokenStaking.sol",
  "compiler": {
    "name": "solc",
    "version": "0.8.19+commit.7dd6d404.Emscripten.clang"
  },
  "schemaVersion": "3.4.13",
  "updatedAt": "2023-05-01T12:15:51.139Z",
  "devdoc": {
    "kind": "dev",
    "methods": {},
    "version": 1
  },
  "userdoc": {
    "kind": "user",
    "methods": {},
    "version": 1
  }
}