{
    "contractName": "TokenStaking",
    "abi": [
        {
            "inputs": [
                {
                    "internalType": "contract TestToken",
                    "name": "_testToken",
                    "type": "address"
                }
            ],
            "stateMutability": "payable",
            "type": "constructor"
        },
        {
            "inputs": [
                {
                    "internalType": "uint256",
                    "name": "_value",
                    "type": "uint256"
                }
            ],
            "name": "changeAPY",
            "outputs": [],
            "stateMutability": "nonpayable",
            "type": "function"
        },
        {
            "inputs": [],
            "name": "claimTst",
            "outputs": [],
            "stateMutability": "nonpayable",
            "type": "function"
        },
        {
            "inputs": [],
            "name": "customAPY",
            "outputs": [
                {
                    "internalType": "uint256",
                    "name": "",
                    "type": "uint256"
                }
            ],
            "stateMutability": "view",
            "type": "function"
        },
        {
            "inputs": [
                {
                    "internalType": "address",
                    "name": "",
                    "type": "address"
                }
            ],
            "name": "customHasStaked",
            "outputs": [
                {
                    "internalType": "bool",
                    "name": "",
                    "type": "bool"
                }
            ],
            "stateMutability": "view",
            "type": "function"
        },
        {
            "inputs": [
                {
                    "internalType": "address",
                    "name": "",
                    "type": "address"
                }
            ],
            "name": "customIsStakingAtm",
            "outputs": [
                {
                    "internalType": "bool",
                    "name": "",
                    "type": "bool"
                }
            ],
            "stateMutability": "view",
            "type": "function"
        },
        {
            "inputs": [],
            "name": "customRewards",
            "outputs": [],
            "stateMutability": "nonpayable",
            "type": "function"
        },
        {
            "inputs": [
                {
                    "internalType": "uint256",
                    "name": "",
                    "type": "uint256"
                }
            ],
            "name": "customStakers",
            "outputs": [
                {
                    "internalType": "address",
                    "name": "",
                    "type": "address"
                }
            ],
            "stateMutability": "view",
            "type": "function"
        },
        {
            "inputs": [
                {
                    "internalType": "uint256",
                    "name": "_amount",
                    "type": "uint256"
                }
            ],
            "name": "customStaking",
            "outputs": [],
            "stateMutability": "nonpayable",
            "type": "function"
        },
        {
            "inputs": [
                {
                    "internalType": "address",
                    "name": "",
                    "type": "address"
                }
            ],
            "name": "customStakingBalance",
            "outputs": [
                {
                    "internalType": "uint256",
                    "name": "",
                    "type": "uint256"
                }
            ],
            "stateMutability": "view",
            "type": "function"
        },
        {
            "inputs": [],
            "name": "customTotalStaked",
            "outputs": [
                {
                    "internalType": "uint256",
                    "name": "",
                    "type": "uint256"
                }
            ],
            "stateMutability": "view",
            "type": "function"
        },
        {
            "inputs": [],
            "name": "customUnstake",
            "outputs": [],
            "stateMutability": "nonpayable",
            "type": "function"
        },
        {
            "inputs": [],
            "name": "defaultAPY",
            "outputs": [
                {
                    "internalType": "uint256",
                    "name": "",
                    "type": "uint256"
                }
            ],
            "stateMutability": "view",
            "type": "function"
        },
        {
            "inputs": [
                {
                    "internalType": "address",
                    "name": "",
                    "type": "address"
                }
            ],
            "name": "hasStaked",
            "outputs": [
                {
                    "internalType": "bool",
                    "name": "",
                    "type": "bool"
                }
            ],
            "stateMutability": "view",
            "type": "function"
        },
        {
            "inputs": [
                {
                    "internalType": "address",
                    "name": "",
                    "type": "address"
                }
            ],
            "name": "isStakingAtm",
            "outputs": [
                {
                    "internalType": "bool",
                    "name": "",
                    "type": "bool"
                }
            ],
            "stateMutability": "view",
            "type": "function"
        },
        {
            "inputs": [],
            "name": "name",
            "outputs": [
                {
                    "internalType": "string",
                    "name": "",
                    "type": "string"
                }
            ],
            "stateMutability": "view",
            "type": "function"
        },
        {
            "inputs": [],
            "name": "owner",
            "outputs": [
                {
                    "internalType": "address",
                    "name": "",
                    "type": "address"
                }
            ],
            "stateMutability": "view",
            "type": "function"
        },
        {
            "inputs": [],
            "name": "redistributeRewards",
            "outputs": [],
            "stateMutability": "nonpayable",
            "type": "function"
        },
        {
            "inputs": [
                {
                    "internalType": "uint256",
                    "name": "_amount",
                    "type": "uint256"
                }
            ],
            "name": "stakeTokens",
            "outputs": [],
            "stateMutability": "nonpayable",
            "type": "function"
        },
        {
            "inputs": [
                {
                    "internalType": "uint256",
                    "name": "",
                    "type": "uint256"
                }
            ],
            "name": "stakers",
            "outputs": [
                {
                    "internalType": "address",
                    "name": "",
                    "type": "address"
                }
            ],
            "stateMutability": "view",
            "type": "function"
        },
        {
            "inputs": [
                {
                    "internalType": "address",
                    "name": "",
                    "type": "address"
                }
            ],
            "name": "stakingBalance",
            "outputs": [
                {
                    "internalType": "uint256",
                    "name": "",
                    "type": "uint256"
                }
            ],
            "stateMutability": "view",
            "type": "function"
        },
        {
            "inputs": [],
            "name": "testToken",
            "outputs": [
                {
                    "internalType": "contract TestToken",
                    "name": "",
                    "type": "address"
                }
            ],
            "stateMutability": "view",
            "type": "function"
        },
        {
            "inputs": [],
            "name": "totalStaked",
            "outputs": [
                {
                    "internalType": "uint256",
                    "name": "",
                    "type": "uint256"
                }
            ],
            "stateMutability": "view",
            "type": "function"
        },
        {
            "inputs": [],
            "name": "unstakeTokens",
            "outputs": [],
            "stateMutability": "nonpayable",
            "type": "function"
        }
    ],
    "bytecode": "60c0604052601a60808190527f5969656c64204661726d696e67202f20546f6b656e206441707000000000000060a090815261003e916000919061009b565b5060646003556089600455604051610fe1380380610fe18339818101604052602081101561006b57600080fd5b5051600180546001600160a01b039092166001600160a01b0319928316179055600280549091163317905561012e565b828054600181600116156101000203166002900490600052602060002090601f016020900481019282601f106100dc57805160ff1916838001178555610109565b82800160010185558215610109579182015b828111156101095782518255916020019190600101906100ee565b50610115929150610119565b5090565b5b80821115610115576000815560010161011a565b610ea48061013d6000396000f3fe608060405234801561001057600080fd5b506004361061014d5760003560e01c80637cc302e5116100c3578063c93c8f341161007c578063c93c8f3414610335578063cc8da8b81461035b578063cde5f47314610363578063dfb0e70614610380578063fb5cd515146103a6578063fd5e6dd1146103c35761014d565b80637cc302e5146102e7578063817b1cd2146102ef5780638da5cb5b146102f75780639bd62932146102ff578063a5ce413b14610325578063b4e892af1461032d5761014d565b806363fa14661161011557806363fa14661461025357806366f1c9201461025b5780636895179d146102635780636d6010c1146102875780637547c7a3146102ad57806376159b68146102ca5761014d565b806306fdde03146101525780630c500a4e146101cf57806329cc2407146101e957806345bc78ab146101f35780635b5c58c314610219575b600080fd5b61015a6103e0565b6040805160208082528351818301528351919283929083019185019080838360005b8381101561019457818101518382015260200161017c565b50505050905090810190601f1680156101c15780820380516001836020036101000a031916815260200191505b509250505060405180910390f35b6101d761046e565b60408051918252519081900360200190f35b6101f1610474565b005b6101d76004803603602081101561020957600080fd5b50356001600160a01b0316610509565b61023f6004803603602081101561022f57600080fd5b50356001600160a01b031661051b565b604080519115158252519081900360200190f35b6101d7610530565b6101f1610536565b61026b610666565b604080516001600160a01b039092168252519081900360200190f35b61023f6004803603602081101561029d57600080fd5b50356001600160a01b0316610675565b6101f1600480360360208110156102c357600080fd5b503561068a565b6101f1600480360360208110156102e057600080fd5b5035610801565b6101f161088e565b6101d76109a0565b61026b6109a6565b61023f6004803603602081101561031557600080fd5b50356001600160a01b03166109b5565b6101f16109ca565b6101d7610adc565b61023f6004803603602081101561034b57600080fd5b50356001600160a01b0316610ae2565b6101f1610af7565b61026b6004803603602081101561037957600080fd5b5035610c24565b6101d76004803603602081101561039657600080fd5b50356001600160a01b0316610c4b565b6101f1600480360360208110156103bc57600080fd5b5035610c5d565b61026b600480360360208110156103d957600080fd5b5035610dd4565b6000805460408051602060026001851615610100026000190190941693909304601f810184900484028201840190925281815292918301828280156104665780601f1061043b57610100808354040283529160200191610466565b820191906000526020600020905b81548152906001019060200180831161044957829003601f168201915b505050505081565b60045481565b6001546040805163a9059cbb60e01b81523360048201819052683635c9adc5dea00000602483018190529251909383926001600160a01b039091169163a9059cbb916044808201926020929091908290030181600087803b1580156104d857600080fd5b505af11580156104ec573d6000803e3d6000fd5b505050506040513d602081101561050257600080fd5b5050505050565b60076020526000908152604090205481565b600c6020526000908152604090205460ff1681565b60065481565b6002546001600160a01b0316331461057f5760405162461bcd60e51b8152600401808060200182810382526026815260200180610e496026913960400191505060405180910390fd5b60005b600e54811015610663576000600e828154811061059b57fe5b6000918252602080832091909101546004546001600160a01b039091168084526008909252604090922054909250620186a09102048015610659576001546040805163a9059cbb60e01b81526001600160a01b038581166004830152602482018590529151919092169163a9059cbb9160448083019260209291908290030181600087803b15801561062c57600080fd5b505af1158015610640573d6000803e3d6000fd5b505050506040513d602081101561065657600080fd5b50505b5050600101610582565b50565b6001546001600160a01b031681565b600a6020526000908152604090205460ff1681565b600081116106d4576040805162461bcd60e51b81526020600482015260126024820152710616d6f756e742063616e6e6f7420626520360741b604482015290519081900360640190fd5b600154604080516323b872dd60e01b81523360048201523060248201526044810184905290516001600160a01b03909216916323b872dd916064808201926020929091908290030181600087803b15801561072e57600080fd5b505af1158015610742573d6000803e3d6000fd5b505050506040513d602081101561075857600080fd5b50506005805482019055336000908152600760209081526040808320805485019055600990915290205460ff166107cc57600d80546001810182556000919091527fd7b6990105719101dabeb77144f2a3385c8033acd3af97e9423a695e81ad1eb50180546001600160a01b031916331790555b503360009081526009602090815260408083208054600160ff199182168117909255600b909352922080549091169091179055565b6002546001600160a01b0316331461084a5760405162461bcd60e51b8152600401808060200182810382526024815260200180610de26024913960400191505060405180910390fd5b600081116108895760405162461bcd60e51b8152600401808060200182810382526043815260200180610e066043913960600191505060405180910390fd5b600455565b33600090815260086020526040902054806108f0576040805162461bcd60e51b815260206004820152601c60248201527f616d6f756e742068617320746f206265206d6f7265207468616e203000000000604482015290519081900360640190fd5b6001546040805163a9059cbb60e01b81523360048201526024810184905290516001600160a01b039092169163a9059cbb916044808201926020929091908290030181600087803b15801561094457600080fd5b505af1158015610958573d6000803e3d6000fd5b505050506040513d602081101561096e57600080fd5b505060068054919091039055336000908152600860209081526040808320839055600c9091529020805460ff19169055565b60055481565b6002546001600160a01b031681565b600b6020526000908152604090205460ff1681565b3360009081526007602052604090205480610a2c576040805162461bcd60e51b815260206004820152601c60248201527f616d6f756e742068617320746f206265206d6f7265207468616e203000000000604482015290519081900360640190fd5b6001546040805163a9059cbb60e01b81523360048201526024810184905290516001600160a01b039092169163a9059cbb916044808201926020929091908290030181600087803b158015610a8057600080fd5b505af1158015610a94573d6000803e3d6000fd5b505050506040513d6020811015610aaa57600080fd5b505060058054919091039055336000908152600760209081526040808320839055600b9091529020805460ff19169055565b60035481565b60096020526000908152604090205460ff1681565b6002546001600160a01b03163314610b405760405162461bcd60e51b8152600401808060200182810382526026815260200180610e496026913960400191505060405180910390fd5b60005b600d54811015610663576000600d8281548110610b5c57fe5b6000918252602080832091909101546003546001600160a01b039091168084526007909252604090922054909250620186a09102048015610c1a576001546040805163a9059cbb60e01b81526001600160a01b038581166004830152602482018590529151919092169163a9059cbb9160448083019260209291908290030181600087803b158015610bed57600080fd5b505af1158015610c01573d6000803e3d6000fd5b505050506040513d6020811015610c1757600080fd5b50505b5050600101610b43565b600e8181548110610c3157fe5b6000918252602090912001546001600160a01b0316905081565b60086020526000908152604090205481565b60008111610ca7576040805162461bcd60e51b81526020600482015260126024820152710616d6f756e742063616e6e6f7420626520360741b604482015290519081900360640190fd5b600154604080516323b872dd60e01b81523360048201523060248201526044810184905290516001600160a01b03909216916323b872dd916064808201926020929091908290030181600087803b158015610d0157600080fd5b505af1158015610d15573d6000803e3d6000fd5b505050506040513d6020811015610d2b57600080fd5b50506006805482019055336000908152600860209081526040808320805485019055600a90915290205460ff16610d9f57600e80546001810182556000919091527fbb7b4a454dc3493923482f07822329ed19e8244eff582cc204f8554c3620c3fd0180546001600160a01b031916331790555b50336000908152600a602090815260408083208054600160ff199182168117909255600c909352922080549091169091179055565b600d8181548110610c3157fefe4f6e6c7920636f6e74726163742063726561746f722063616e206368616e6765204150594150592076616c75652068617320746f206265206d6f7265207468616e20302c207472792031303020666f722028302e31303025206461696c792920696e73746561644f6e6c7920636f6e74726163742063726561746f722063616e20726564697374726962757465a2646970667358221220b49f3b417523a8d2c2cb0a9a90ae8de9a4da13c0865e7193f4e93fb78b34389264736f6c63430007030033",
    "sourcePath": "/home/tevin/celo-token-stake/src/contracts/TokenStaking.sol",
    "compiler": {
        "name": "solc",
        "version": "0.7.3+commit.9bfce1f6"
    },
    "functionHashes": {
        "changeAPY(uint256)": "76159b68",
        "claimTst()": "29cc2407",
        "customAPY()": "0c500a4e",
        "customHasStaked(address)": "6d6010c1",
        "customIsStakingAtm(address)": "5b5c58c3",
        "customRewards()": "66f1c920",
        "customStakers(uint256)": "cde5f473",
        "customStaking(uint256)": "fb5cd515",
        "customStakingBalance(address)": "dfb0e706",
        "customTotalStaked()": "63fa1466",
        "customUnstake()": "7cc302e5",
        "defaultAPY()": "b4e892af",
        "hasStaked(address)": "c93c8f34",
        "isStakingAtm(address)": "9bd62932",
        "name()": "06fdde03",
        "owner()": "8da5cb5b",
        "redistributeRewards()": "cc8da8b8",
        "stakeTokens(uint256)": "7547c7a3",
        "stakers(uint256)": "fd5e6dd1",
        "stakingBalance(address)": "45bc78ab",
        "testToken()": "6895179d",
        "totalStaked()": "817b1cd2",
        "unstakeTokens()": "a5ce413b"
    },
    "gasEstimates": {
        "creation": {
            "codeDepositCost": "749600",
            "executionCost": "infinite",
            "totalCost": "infinite"
        },
        "external": {
            "changeAPY(uint256)": "infinite",
            "claimTst()": "infinite",
            "customAPY()": "1044",
            "customHasStaked(address)": "1225",
            "customIsStakingAtm(address)": "1248",
            "customRewards()": "infinite",
            "customStakers(uint256)": "2036",
            "customStaking(uint256)": "infinite",
            "customStakingBalance(address)": "1212",
            "customTotalStaked()": "1021",
            "customUnstake()": "infinite",
            "defaultAPY()": "1131",
            "hasStaked(address)": "1158",
            "isStakingAtm(address)": "1225",
            "name()": "infinite",
            "owner()": "1104",
            "redistributeRewards()": "infinite",
            "stakeTokens(uint256)": "infinite",
            "stakers(uint256)": "2102",
            "stakingBalance(address)": "1214",
            "testToken()": "1104",
            "totalStaked()": "1043",
            "unstakeTokens()": "infinite"
        }
    }
}